{
  "_format": "hh-sol-artifact-1",
  "contractName": "KodeShop",
  "sourceName": "contracts/KodeShop.sol",
  "abi": [
    {
      "inputs": [],
      "stateMutability": "nonpayable",
      "type": "constructor"
    },
    {
      "inputs": [
        {
          "internalType": "string",
          "name": "_productName",
          "type": "string"
        },
        {
          "internalType": "string",
          "name": "_description",
          "type": "string"
        },
        {
          "internalType": "uint256",
          "name": "_price",
          "type": "uint256"
        },
        {
          "internalType": "uint256",
          "name": "_quantity",
          "type": "uint256"
        },
        {
          "internalType": "string[]",
          "name": "_images",
          "type": "string[]"
        }
      ],
      "name": "addProduct",
      "outputs": [],
      "stateMutability": "nonpayable",
      "type": "function"
    },
    {
      "inputs": [
        {
          "internalType": "uint256",
          "name": "",
          "type": "uint256"
        }
      ],
      "name": "completedSales",
      "outputs": [
        {
          "internalType": "uint256",
          "name": "saleId",
          "type": "uint256"
        },
        {
          "internalType": "uint256",
          "name": "productId",
          "type": "uint256"
        },
        {
          "internalType": "address",
          "name": "merchantAddress",
          "type": "address"
        },
        {
          "internalType": "address",
          "name": "userId",
          "type": "address"
        }
      ],
      "stateMutability": "view",
      "type": "function"
    },
    {
      "inputs": [],
      "name": "getAllProducts",
      "outputs": [
        {
          "components": [
            {
              "internalType": "uint256",
              "name": "productId",
              "type": "uint256"
            },
            {
              "internalType": "string",
              "name": "productName",
              "type": "string"
            },
            {
              "internalType": "string",
              "name": "description",
              "type": "string"
            },
            {
              "internalType": "uint256",
              "name": "quantity",
              "type": "uint256"
            },
            {
              "internalType": "uint256",
              "name": "price",
              "type": "uint256"
            },
            {
              "internalType": "string[]",
              "name": "images",
              "type": "string[]"
            },
            {
              "internalType": "address",
              "name": "merchantAddress",
              "type": "address"
            }
          ],
          "internalType": "struct KodeShop.Product[]",
          "name": "",
          "type": "tuple[]"
        }
      ],
      "stateMutability": "view",
      "type": "function"
    },
    {
      "inputs": [
        {
          "internalType": "address",
          "name": "",
          "type": "address"
        }
      ],
      "name": "merchants",
      "outputs": [
        {
          "internalType": "address",
          "name": "merchantAddress",
          "type": "address"
        },
        {
          "internalType": "string",
          "name": "merchantName",
          "type": "string"
        },
        {
          "internalType": "string",
          "name": "merchantLocation",
          "type": "string"
        },
        {
          "internalType": "string",
          "name": "storeName",
          "type": "string"
        }
      ],
      "stateMutability": "view",
      "type": "function"
    },
    {
      "inputs": [],
      "name": "numProducts",
      "outputs": [
        {
          "internalType": "uint256",
          "name": "",
          "type": "uint256"
        }
      ],
      "stateMutability": "view",
      "type": "function"
    },
    {
      "inputs": [],
      "name": "numSales",
      "outputs": [
        {
          "internalType": "uint256",
          "name": "",
          "type": "uint256"
        }
      ],
      "stateMutability": "view",
      "type": "function"
    },
    {
      "inputs": [],
      "name": "owner",
      "outputs": [
        {
          "internalType": "address",
          "name": "",
          "type": "address"
        }
      ],
      "stateMutability": "view",
      "type": "function"
    },
    {
      "inputs": [
        {
          "internalType": "uint256",
          "name": "",
          "type": "uint256"
        }
      ],
      "name": "pendingSales",
      "outputs": [
        {
          "internalType": "uint256",
          "name": "saleId",
          "type": "uint256"
        },
        {
          "internalType": "uint256",
          "name": "productId",
          "type": "uint256"
        },
        {
          "internalType": "address",
          "name": "merchantAddress",
          "type": "address"
        },
        {
          "internalType": "address",
          "name": "userId",
          "type": "address"
        }
      ],
      "stateMutability": "view",
      "type": "function"
    },
    {
      "inputs": [
        {
          "internalType": "uint256",
          "name": "",
          "type": "uint256"
        }
      ],
      "name": "products",
      "outputs": [
        {
          "internalType": "uint256",
          "name": "productId",
          "type": "uint256"
        },
        {
          "internalType": "string",
          "name": "productName",
          "type": "string"
        },
        {
          "internalType": "string",
          "name": "description",
          "type": "string"
        },
        {
          "internalType": "uint256",
          "name": "quantity",
          "type": "uint256"
        },
        {
          "internalType": "uint256",
          "name": "price",
          "type": "uint256"
        },
        {
          "internalType": "address",
          "name": "merchantAddress",
          "type": "address"
        }
      ],
      "stateMutability": "view",
      "type": "function"
    },
    {
      "inputs": [
        {
          "internalType": "address",
          "name": "_merchantAddress",
          "type": "address"
        },
        {
          "internalType": "string",
          "name": "_name",
          "type": "string"
        },
        {
          "internalType": "string",
          "name": "_merchantLocation",
          "type": "string"
        },
        {
          "internalType": "string",
          "name": "_storeName",
          "type": "string"
        }
      ],
      "name": "registerMerchant",
      "outputs": [],
      "stateMutability": "nonpayable",
      "type": "function"
    },
    {
      "inputs": [
        {
          "internalType": "uint256",
          "name": "_productId",
          "type": "uint256"
        }
      ],
      "name": "removeProduct",
      "outputs": [],
      "stateMutability": "nonpayable",
      "type": "function"
    },
    {
      "inputs": [
        {
          "internalType": "address",
          "name": "",
          "type": "address"
        }
      ],
      "name": "users",
      "outputs": [
        {
          "internalType": "uint256",
          "name": "userId",
          "type": "uint256"
        },
        {
          "internalType": "address",
          "name": "userAddress",
          "type": "address"
        },
        {
          "internalType": "string",
          "name": "userName",
          "type": "string"
        },
        {
          "internalType": "string",
          "name": "userLocation",
          "type": "string"
        },
        {
          "internalType": "uint256",
          "name": "kodePoints",
          "type": "uint256"
        }
      ],
      "stateMutability": "view",
      "type": "function"
    }
  ],
  "bytecode": "0x6080604052348015600f57600080fd5b50336000806101000a81548173ffffffffffffffffffffffffffffffffffffffff021916908373ffffffffffffffffffffffffffffffffffffffff1602179055506121748061005f6000396000f3fe608060405234801561001057600080fd5b50600436106100b45760003560e01c8063a517d1fe11610071578063a517d1fe14610197578063a87430ba146101ca578063ac964f21146101fe578063b0808c091461021c578063de12473d14610238578063ee14e93914610254576100b4565b806302ee3a52146100b95780635ee95cae146100d75780637acc0b20146100f35780638da5cb5b1461012857806390e6460a1461014657806399aa93c814610179575b600080fd5b6100c1610287565b6040516100ce91906115b6565b60405180910390f35b6100f160048036038101906100ec9190611618565b6105d6565b005b61010d60048036038101906101089190611618565b610787565b60405161011f969594939291906116ad565b60405180910390f35b6101306108f3565b60405161013d919061171c565b60405180910390f35b610160600480360381019061015b9190611618565b610917565b6040516101709493929190611737565b60405180910390f35b610181610987565b60405161018e919061177c565b60405180910390f35b6101b160048036038101906101ac9190611618565b61098d565b6040516101c19493929190611737565b60405180910390f35b6101e460048036038101906101df91906117c3565b6109fd565b6040516101f59594939291906117f0565b60405180910390f35b610206610b63565b604051610213919061177c565b60405180910390f35b61023660048036038101906102319190611986565b610b69565b005b610252600480360381019061024d9190611b27565b610ce2565b005b61026e600480360381019061026991906117c3565b610f68565b60405161027e9493929190611bf6565b60405180910390f35b6060600060088054905067ffffffffffffffff8111156102aa576102a961185b565b5b6040519080825280602002602001820160405280156102e357816020015b6102d0611150565b8152602001906001900390816102c85790505b50905060005b6008805490508110156105ce57600160006008838154811061030e5761030d611c50565b5b906000526020600020015481526020019081526020016000206040518060e00160405290816000820154815260200160018201805461034c90611cae565b80601f016020809104026020016040519081016040528092919081815260200182805461037890611cae565b80156103c55780601f1061039a576101008083540402835291602001916103c5565b820191906000526020600020905b8154815290600101906020018083116103a857829003601f168201915b505050505081526020016002820180546103de90611cae565b80601f016020809104026020016040519081016040528092919081815260200182805461040a90611cae565b80156104575780601f1061042c57610100808354040283529160200191610457565b820191906000526020600020905b81548152906001019060200180831161043a57829003601f168201915b50505050508152602001600382015481526020016004820154815260200160058201805480602002602001604051908101604052809291908181526020016000905b828210156105455783829060005260206000200180546104b890611cae565b80601f01602080910402602001604051908101604052809291908181526020018280546104e490611cae565b80156105315780601f1061050657610100808354040283529160200191610531565b820191906000526020600020905b81548152906001019060200180831161051457829003601f168201915b505050505081526020019060010190610499565b5050505081526020016006820160009054906101000a900473ffffffffffffffffffffffffffffffffffffffff1673ffffffffffffffffffffffffffffffffffffffff1673ffffffffffffffffffffffffffffffffffffffff16815250508282815181106105b6576105b5611c50565b5b602002602001018190525080806001019150506102e9565b508091505090565b3373ffffffffffffffffffffffffffffffffffffffff16600260003373ffffffffffffffffffffffffffffffffffffffff1673ffffffffffffffffffffffffffffffffffffffff16815260200190815260200160002060000160009054906101000a900473ffffffffffffffffffffffffffffffffffffffff1673ffffffffffffffffffffffffffffffffffffffff16146106a6576040517f08c379a000000000000000000000000000000000000000000000000000000000815260040161069d90611d51565b60405180910390fd5b60006001600083815260200190815260200160002060000154036106ff576040517f08c379a00000000000000000000000000000000000000000000000000000000081526004016106f690611dbd565b60405180910390fd5b6001600082815260200190815260200160002060008082016000905560018201600061072b91906111a3565b60028201600061073b91906111a3565b6003820160009055600482016000905560058201600061075b91906111e3565b6006820160006101000a81549073ffffffffffffffffffffffffffffffffffffffff0219169055505050565b60016020528060005260406000206000915090508060000154908060010180546107b090611cae565b80601f01602080910402602001604051908101604052809291908181526020018280546107dc90611cae565b80156108295780601f106107fe57610100808354040283529160200191610829565b820191906000526020600020905b81548152906001019060200180831161080c57829003601f168201915b50505050509080600201805461083e90611cae565b80601f016020809104026020016040519081016040528092919081815260200182805461086a90611cae565b80156108b75780601f1061088c576101008083540402835291602001916108b7565b820191906000526020600020905b81548152906001019060200180831161089a57829003601f168201915b5050505050908060030154908060040154908060060160009054906101000a900473ffffffffffffffffffffffffffffffffffffffff16905086565b60008054906101000a900473ffffffffffffffffffffffffffffffffffffffff1681565b60036020528060005260406000206000915090508060000154908060010154908060020160009054906101000a900473ffffffffffffffffffffffffffffffffffffffff16908060030160009054906101000a900473ffffffffffffffffffffffffffffffffffffffff16905084565b60075481565b60046020528060005260406000206000915090508060000154908060010154908060020160009054906101000a900473ffffffffffffffffffffffffffffffffffffffff16908060030160009054906101000a900473ffffffffffffffffffffffffffffffffffffffff16905084565b60056020528060005260406000206000915090508060000154908060010160009054906101000a900473ffffffffffffffffffffffffffffffffffffffff1690806002018054610a4c90611cae565b80601f0160208091040260200160405190810160405280929190818152602001828054610a7890611cae565b8015610ac55780601f10610a9a57610100808354040283529160200191610ac5565b820191906000526020600020905b815481529060010190602001808311610aa857829003601f168201915b505050505090806003018054610ada90611cae565b80601f0160208091040260200160405190810160405280929190818152602001828054610b0690611cae565b8015610b535780601f10610b2857610100808354040283529160200191610b53565b820191906000526020600020905b815481529060010190602001808311610b3657829003601f168201915b5050505050908060040154905085565b60065481565b6040518060a001604052808573ffffffffffffffffffffffffffffffffffffffff168152602001848152602001838152602001828152602001600067ffffffffffffffff811115610bbd57610bbc61185b565b5b604051908082528060200260200182016040528015610bf057816020015b6060815260200190600190039081610bdb5790505b50815250600260008673ffffffffffffffffffffffffffffffffffffffff1673ffffffffffffffffffffffffffffffffffffffff16815260200190815260200160002060008201518160000160006101000a81548173ffffffffffffffffffffffffffffffffffffffff021916908373ffffffffffffffffffffffffffffffffffffffff1602179055506020820151816001019081610c8f9190611f89565b506040820151816002019081610ca59190611f89565b506060820151816003019081610cbb9190611f89565b506080820151816004019080519060200190610cd8929190611204565b5090505050505050565b3373ffffffffffffffffffffffffffffffffffffffff16600260003373ffffffffffffffffffffffffffffffffffffffff1673ffffffffffffffffffffffffffffffffffffffff16815260200190815260200160002060000160009054906101000a900473ffffffffffffffffffffffffffffffffffffffff1673ffffffffffffffffffffffffffffffffffffffff1614610db2576040517f08c379a0000000000000000000000000000000000000000000000000000000008152600401610da990611d51565b60405180910390fd5b60003390506000600660008154610dc89061208a565b91905081905590506000600160008381526020019081526020016000206000015414610e29576040517f08c379a0000000000000000000000000000000000000000000000000000000008152600401610e209061211e565b60405180910390fd5b6040518060e001604052808281526020018881526020018781526020018581526020018681526020018481526020018373ffffffffffffffffffffffffffffffffffffffff1681525060016000838152602001908152602001600020600082015181600001556020820151816001019081610ea49190611f89565b506040820151816002019081610eba9190611f89565b50606082015181600301556080820151816004015560a0820151816005019080519060200190610eeb929190611204565b5060c08201518160060160006101000a81548173ffffffffffffffffffffffffffffffffffffffff021916908373ffffffffffffffffffffffffffffffffffffffff160217905550905050600881908060018154018082558091505060019003906000526020600020016000909190919091505550505050505050565b60026020528060005260406000206000915090508060000160009054906101000a900473ffffffffffffffffffffffffffffffffffffffff1690806001018054610fb190611cae565b80601f0160208091040260200160405190810160405280929190818152602001828054610fdd90611cae565b801561102a5780601f10610fff5761010080835404028352916020019161102a565b820191906000526020600020905b81548152906001019060200180831161100d57829003601f168201915b50505050509080600201805461103f90611cae565b80601f016020809104026020016040519081016040528092919081815260200182805461106b90611cae565b80156110b85780601f1061108d576101008083540402835291602001916110b8565b820191906000526020600020905b81548152906001019060200180831161109b57829003601f168201915b5050505050908060030180546110cd90611cae565b80601f01602080910402602001604051908101604052809291908181526020018280546110f990611cae565b80156111465780601f1061111b57610100808354040283529160200191611146565b820191906000526020600020905b81548152906001019060200180831161112957829003601f168201915b5050505050905084565b6040518060e00160405280600081526020016060815260200160608152602001600081526020016000815260200160608152602001600073ffffffffffffffffffffffffffffffffffffffff1681525090565b5080546111af90611cae565b6000825580601f106111c157506111e0565b601f0160209004906000526020600020908101906111df919061125d565b5b50565b5080546000825590600052602060002090810190611201919061127a565b50565b82805482825590600052602060002090810192821561124c579160200282015b8281111561124b57825182908161123b9190611f89565b5091602001919060010190611224565b5b509050611259919061127a565b5090565b5b8082111561127657600081600090555060010161125e565b5090565b5b8082111561129a576000818161129191906111a3565b5060010161127b565b5090565b600081519050919050565b600082825260208201905092915050565b6000819050602082019050919050565b6000819050919050565b6112dd816112ca565b82525050565b600081519050919050565b600082825260208201905092915050565b60005b8381101561131d578082015181840152602081019050611302565b60008484015250505050565b6000601f19601f8301169050919050565b6000611345826112e3565b61134f81856112ee565b935061135f8185602086016112ff565b61136881611329565b840191505092915050565b600081519050919050565b600082825260208201905092915050565b6000819050602082019050919050565b60006113ab838361133a565b905092915050565b6000602082019050919050565b60006113cb82611373565b6113d5818561137e565b9350836020820285016113e78561138f565b8060005b858110156114235784840389528151611404858261139f565b945061140f836113b3565b925060208a019950506001810190506113eb565b50829750879550505050505092915050565b600073ffffffffffffffffffffffffffffffffffffffff82169050919050565b600061146082611435565b9050919050565b61147081611455565b82525050565b600060e08301600083015161148e60008601826112d4565b50602083015184820360208601526114a6828261133a565b915050604083015184820360408601526114c0828261133a565b91505060608301516114d560608601826112d4565b5060808301516114e860808601826112d4565b5060a083015184820360a086015261150082826113c0565b91505060c083015161151560c0860182611467565b508091505092915050565b600061152c8383611476565b905092915050565b6000602082019050919050565b600061154c8261129e565b61155681856112a9565b935083602082028501611568856112ba565b8060005b858110156115a457848403895281516115858582611520565b945061159083611534565b925060208a0199505060018101905061156c565b50829750879550505050505092915050565b600060208201905081810360008301526115d08184611541565b905092915050565b6000604051905090565b600080fd5b600080fd5b6115f5816112ca565b811461160057600080fd5b50565b600081359050611612816115ec565b92915050565b60006020828403121561162e5761162d6115e2565b5b600061163c84828501611603565b91505092915050565b61164e816112ca565b82525050565b600082825260208201905092915050565b6000611670826112e3565b61167a8185611654565b935061168a8185602086016112ff565b61169381611329565b840191505092915050565b6116a781611455565b82525050565b600060c0820190506116c26000830189611645565b81810360208301526116d48188611665565b905081810360408301526116e88187611665565b90506116f76060830186611645565b6117046080830185611645565b61171160a083018461169e565b979650505050505050565b6000602082019050611731600083018461169e565b92915050565b600060808201905061174c6000830187611645565b6117596020830186611645565b611766604083018561169e565b611773606083018461169e565b95945050505050565b60006020820190506117916000830184611645565b92915050565b6117a081611455565b81146117ab57600080fd5b50565b6000813590506117bd81611797565b92915050565b6000602082840312156117d9576117d86115e2565b5b60006117e7848285016117ae565b91505092915050565b600060a0820190506118056000830188611645565b611812602083018761169e565b81810360408301526118248186611665565b905081810360608301526118388185611665565b90506118476080830184611645565b9695505050505050565b600080fd5b600080fd5b7f4e487b7100000000000000000000000000000000000000000000000000000000600052604160045260246000fd5b61189382611329565b810181811067ffffffffffffffff821117156118b2576118b161185b565b5b80604052505050565b60006118c56115d8565b90506118d1828261188a565b919050565b600067ffffffffffffffff8211156118f1576118f061185b565b5b6118fa82611329565b9050602081019050919050565b82818337600083830152505050565b6000611929611924846118d6565b6118bb565b90508281526020810184848401111561194557611944611856565b5b611950848285611907565b509392505050565b600082601f83011261196d5761196c611851565b5b813561197d848260208601611916565b91505092915050565b600080600080608085870312156119a05761199f6115e2565b5b60006119ae878288016117ae565b945050602085013567ffffffffffffffff8111156119cf576119ce6115e7565b5b6119db87828801611958565b935050604085013567ffffffffffffffff8111156119fc576119fb6115e7565b5b611a0887828801611958565b925050606085013567ffffffffffffffff811115611a2957611a286115e7565b5b611a3587828801611958565b91505092959194509250565b600067ffffffffffffffff821115611a5c57611a5b61185b565b5b602082029050602081019050919050565b600080fd5b6000611a85611a8084611a41565b6118bb565b90508083825260208201905060208402830185811115611aa857611aa7611a6d565b5b835b81811015611aef57803567ffffffffffffffff811115611acd57611acc611851565b5b808601611ada8982611958565b85526020850194505050602081019050611aaa565b5050509392505050565b600082601f830112611b0e57611b0d611851565b5b8135611b1e848260208601611a72565b91505092915050565b600080600080600060a08688031215611b4357611b426115e2565b5b600086013567ffffffffffffffff811115611b6157611b606115e7565b5b611b6d88828901611958565b955050602086013567ffffffffffffffff811115611b8e57611b8d6115e7565b5b611b9a88828901611958565b9450506040611bab88828901611603565b9350506060611bbc88828901611603565b925050608086013567ffffffffffffffff811115611bdd57611bdc6115e7565b5b611be988828901611af9565b9150509295509295909350565b6000608082019050611c0b600083018761169e565b8181036020830152611c1d8186611665565b90508181036040830152611c318185611665565b90508181036060830152611c458184611665565b905095945050505050565b7f4e487b7100000000000000000000000000000000000000000000000000000000600052603260045260246000fd5b7f4e487b7100000000000000000000000000000000000000000000000000000000600052602260045260246000fd5b60006002820490506001821680611cc657607f821691505b602082108103611cd957611cd8611c7f565b5b50919050565b7f4f6e6c79206d65726368616e74732063616e20706572666f726d20746869732060008201527f616374696f6e0000000000000000000000000000000000000000000000000000602082015250565b6000611d3b602683611654565b9150611d4682611cdf565b604082019050919050565b60006020820190508181036000830152611d6a81611d2e565b9050919050565b7f50726f6475637420646f6573206e6f7420657869737400000000000000000000600082015250565b6000611da7601683611654565b9150611db282611d71565b602082019050919050565b60006020820190508181036000830152611dd681611d9a565b9050919050565b60008190508160005260206000209050919050565b60006020601f8301049050919050565b600082821b905092915050565b600060088302611e3f7fffffffffffffffffffffffffffffffffffffffffffffffffffffffffffffffff82611e02565b611e498683611e02565b95508019841693508086168417925050509392505050565b6000819050919050565b6000611e86611e81611e7c846112ca565b611e61565b6112ca565b9050919050565b6000819050919050565b611ea083611e6b565b611eb4611eac82611e8d565b848454611e0f565b825550505050565b600090565b611ec9611ebc565b611ed4818484611e97565b505050565b5b81811015611ef857611eed600082611ec1565b600181019050611eda565b5050565b601f821115611f3d57611f0e81611ddd565b611f1784611df2565b81016020851015611f26578190505b611f3a611f3285611df2565b830182611ed9565b50505b505050565b600082821c905092915050565b6000611f6060001984600802611f42565b1980831691505092915050565b6000611f798383611f4f565b9150826002028217905092915050565b611f92826112e3565b67ffffffffffffffff811115611fab57611faa61185b565b5b611fb58254611cae565b611fc0828285611efc565b600060209050601f831160018114611ff35760008415611fe1578287015190505b611feb8582611f6d565b865550612053565b601f19841661200186611ddd565b60005b8281101561202957848901518255600182019150602085019450602081019050612004565b868310156120465784890151612042601f891682611f4f565b8355505b6001600288020188555050505b505050505050565b7f4e487b7100000000000000000000000000000000000000000000000000000000600052601160045260246000fd5b6000612095826112ca565b91507fffffffffffffffffffffffffffffffffffffffffffffffffffffffffffffffff82036120c7576120c661205b565b5b600182019050919050565b7f50726f6475637420494420616c72656164792065786973747300000000000000600082015250565b6000612108601983611654565b9150612113826120d2565b602082019050919050565b60006020820190508181036000830152612137816120fb565b905091905056fea26469706673582212206609a6e7a9612ae588a6c4a435fba5010147c5303e870afaf0c469cd8cfd5fd964736f6c634300081b0033",
  "linkReferences": {},
  "deployedLinkReferences": {}
}